{
  "contractName": "Wallet",
  "abi": [
    {
      "inputs": [
        {
          "internalType": "address[]",
          "name": "_approvers",
          "type": "address[]"
        },
        {
          "internalType": "uint256",
          "name": "_quorum",
          "type": "uint256"
        },
        {
          "internalType": "address payable",
          "name": "_beneficiary",
          "type": "address"
        }
      ],
      "stateMutability": "nonpayable",
      "type": "constructor"
    },
    {
      "anonymous": false,
      "inputs": [
        {
          "indexed": false,
          "internalType": "address",
          "name": "user",
          "type": "address"
        },
        {
          "indexed": true,
          "internalType": "uint256",
          "name": "amount",
          "type": "uint256"
        }
      ],
      "name": "EthReceived",
      "type": "event"
    },
    {
      "anonymous": false,
      "inputs": [
        {
          "indexed": true,
          "internalType": "address",
          "name": "previousOwner",
          "type": "address"
        },
        {
          "indexed": true,
          "internalType": "address",
          "name": "newOwner",
          "type": "address"
        }
      ],
      "name": "OwnershipTransferred",
      "type": "event"
    },
    {
      "anonymous": false,
      "inputs": [
        {
          "indexed": true,
          "internalType": "uint256",
          "name": "id",
          "type": "uint256"
        }
      ],
      "name": "WithdrawalApproved",
      "type": "event"
    },
    {
      "anonymous": false,
      "inputs": [
        {
          "indexed": true,
          "internalType": "uint256",
          "name": "amount",
          "type": "uint256"
        },
        {
          "indexed": false,
          "internalType": "address",
          "name": "to",
          "type": "address"
        }
      ],
      "name": "WithdrawalRequested",
      "type": "event"
    },
    {
      "stateMutability": "payable",
      "type": "fallback"
    },
    {
      "inputs": [],
      "name": "MAX_APPROVER_COUNT",
      "outputs": [
        {
          "internalType": "uint256",
          "name": "",
          "type": "uint256"
        }
      ],
      "stateMutability": "view",
      "type": "function"
    },
    {
      "inputs": [
        {
          "internalType": "uint256",
          "name": "",
          "type": "uint256"
        }
      ],
      "name": "approvers",
      "outputs": [
        {
          "internalType": "address",
          "name": "",
          "type": "address"
        }
      ],
      "stateMutability": "view",
      "type": "function"
    },
    {
      "inputs": [],
      "name": "beneficiary",
      "outputs": [
        {
          "internalType": "address payable",
          "name": "",
          "type": "address"
        }
      ],
      "stateMutability": "view",
      "type": "function"
    },
    {
      "inputs": [],
      "name": "creationTime",
      "outputs": [
        {
          "internalType": "uint256",
          "name": "",
          "type": "uint256"
        }
      ],
      "stateMutability": "view",
      "type": "function"
    },
    {
      "inputs": [],
      "name": "owner",
      "outputs": [
        {
          "internalType": "address",
          "name": "",
          "type": "address"
        }
      ],
      "stateMutability": "view",
      "type": "function"
    },
    {
      "inputs": [],
      "name": "quorum",
      "outputs": [
        {
          "internalType": "uint256",
          "name": "",
          "type": "uint256"
        }
      ],
      "stateMutability": "view",
      "type": "function"
    },
    {
      "inputs": [],
      "name": "renounceOwnership",
      "outputs": [],
      "stateMutability": "nonpayable",
      "type": "function"
    },
    {
      "inputs": [],
      "name": "stopped",
      "outputs": [
        {
          "internalType": "bool",
          "name": "",
          "type": "bool"
        }
      ],
      "stateMutability": "view",
      "type": "function"
    },
    {
      "inputs": [
        {
          "internalType": "address",
          "name": "newOwner",
          "type": "address"
        }
      ],
      "name": "transferOwnership",
      "outputs": [],
      "stateMutability": "nonpayable",
      "type": "function"
    },
    {
      "inputs": [
        {
          "internalType": "uint256",
          "name": "",
          "type": "uint256"
        }
      ],
      "name": "transfers",
      "outputs": [
        {
          "internalType": "uint256",
          "name": "id",
          "type": "uint256"
        },
        {
          "internalType": "uint256",
          "name": "amount",
          "type": "uint256"
        },
        {
          "internalType": "address payable",
          "name": "to",
          "type": "address"
        },
        {
          "internalType": "uint256",
          "name": "approvals",
          "type": "uint256"
        },
        {
          "internalType": "bool",
          "name": "sent",
          "type": "bool"
        }
      ],
      "stateMutability": "view",
      "type": "function"
    },
    {
      "stateMutability": "payable",
      "type": "receive"
    },
    {
      "inputs": [],
      "name": "getApprovers",
      "outputs": [
        {
          "internalType": "address[]",
          "name": "",
          "type": "address[]"
        }
      ],
      "stateMutability": "view",
      "type": "function"
    },
    {
      "inputs": [],
      "name": "getTransfers",
      "outputs": [
        {
          "components": [
            {
              "internalType": "uint256",
              "name": "id",
              "type": "uint256"
            },
            {
              "internalType": "uint256",
              "name": "amount",
              "type": "uint256"
            },
            {
              "internalType": "address payable",
              "name": "to",
              "type": "address"
            },
            {
              "internalType": "uint256",
              "name": "approvals",
              "type": "uint256"
            },
            {
              "internalType": "bool",
              "name": "sent",
              "type": "bool"
            }
          ],
          "internalType": "struct Wallet.Transfer[]",
          "name": "",
          "type": "tuple[]"
        }
      ],
      "stateMutability": "view",
      "type": "function"
    },
    {
      "inputs": [
        {
          "internalType": "uint256",
          "name": "amount",
          "type": "uint256"
        },
        {
          "internalType": "address payable",
          "name": "to",
          "type": "address"
        }
      ],
      "name": "createTransfer",
      "outputs": [],
      "stateMutability": "nonpayable",
      "type": "function"
    },
    {
      "inputs": [
        {
          "internalType": "uint256",
          "name": "id",
          "type": "uint256"
        }
      ],
      "name": "approveTransfer",
      "outputs": [],
      "stateMutability": "nonpayable",
      "type": "function"
    },
    {
      "inputs": [],
      "name": "getBalance",
      "outputs": [
        {
          "internalType": "uint256",
          "name": "",
          "type": "uint256"
        }
      ],
      "stateMutability": "view",
      "type": "function"
    },
    {
      "inputs": [],
      "name": "toggleContractActive",
      "outputs": [],
      "stateMutability": "nonpayable",
      "type": "function"
    },
    {
      "inputs": [],
      "name": "closeWallet",
      "outputs": [
        {
          "internalType": "uint256",
          "name": "",
          "type": "uint256"
        }
      ],
      "stateMutability": "nonpayable",
      "type": "function"
    }
  ],
  "bytecode": "0x6080604052426004556000600560006101000a81548160ff0219169083151502179055503480156200003057600080fd5b50604051620022fa380380620022fa83398181016040528101906200005691906200037e565b620000766200006a6200011d60201b60201c565b6200012560201b60201c565b825182600a82111580156200008b5750818111155b801562000099575060008114155b8015620000a7575060008214155b620000b157600080fd5b8460019080519060200190620000c9929190620001e9565b508360028190555082600360006101000a81548173ffffffffffffffffffffffffffffffffffffffff021916908373ffffffffffffffffffffffffffffffffffffffff16021790555050505050506200051f565b600033905090565b60008060009054906101000a900473ffffffffffffffffffffffffffffffffffffffff169050816000806101000a81548173ffffffffffffffffffffffffffffffffffffffff021916908373ffffffffffffffffffffffffffffffffffffffff1602179055508173ffffffffffffffffffffffffffffffffffffffff168173ffffffffffffffffffffffffffffffffffffffff167f8be0079c531659141344cd1fd0a4f28419497f9722a3daafe3b4186f6b6457e060405160405180910390a35050565b82805482825590600052602060002090810192821562000265579160200282015b82811115620002645782518260006101000a81548173ffffffffffffffffffffffffffffffffffffffff021916908373ffffffffffffffffffffffffffffffffffffffff160217905550916020019190600101906200020a565b5b50905062000274919062000278565b5090565b5b808211156200029357600081600090555060010162000279565b5090565b6000620002ae620002a88462000421565b620003ed565b90508083825260208201905082856020860282011115620002ce57600080fd5b60005b85811015620003025781620002e788826200030c565b845260208401935060208301925050600181019050620002d1565b5050509392505050565b6000815190506200031d81620004d1565b92915050565b6000815190506200033481620004eb565b92915050565b600082601f8301126200034c57600080fd5b81516200035e84826020860162000297565b91505092915050565b600081519050620003788162000505565b92915050565b6000806000606084860312156200039457600080fd5b600084015167ffffffffffffffff811115620003af57600080fd5b620003bd868287016200033a565b9350506020620003d08682870162000367565b9250506040620003e38682870162000323565b9150509250925092565b6000604051905081810181811067ffffffffffffffff82111715620004175762000416620004a2565b5b8060405250919050565b600067ffffffffffffffff8211156200043f576200043e620004a2565b5b602082029050602081019050919050565b60006200045d8262000478565b9050919050565b6000620004718262000478565b9050919050565b600073ffffffffffffffffffffffffffffffffffffffff82169050919050565b6000819050919050565b7f4e487b7100000000000000000000000000000000000000000000000000000000600052604160045260246000fd5b620004dc8162000450565b8114620004e857600080fd5b50565b620004f68162000464565b81146200050257600080fd5b50565b620005108162000498565b81146200051c57600080fd5b50565b611dcb806200052f6000396000f3fe6080604052600436106101025760003560e01c8063715018a611610095578063cacca4a011610064578063cacca4a014610333578063d3650fb81461035c578063d8270dce14610399578063d892ddfc146103c4578063f2fde38b146103ef57610141565b8063715018a61461028557806375f12b211461029c5780638da5cb5b146102c75780639377d711146102f257610141565b80632f65142c116100d15780632f65142c146101db57806338af3eed146102065780634c12fa47146102315780636cb3e8ef1461025a57610141565b806304c4d1661461014357806312065fe01461016e5780631385d24c146101995780631703a018146101b057610141565b3661014157347f85177f287940f2f05425a4029951af0e047a7f9c4eaa9a6e6917bcd869f86695336040516101379190611911565b60405180910390a2005b005b34801561014f57600080fd5b50610158610418565b6040516101659190611b01565b60405180910390f35b34801561017a57600080fd5b5061018361041d565b6040516101909190611b01565b60405180910390f35b3480156101a557600080fd5b506101ae610425565b005b3480156101bc57600080fd5b506101c56104cd565b6040516101d29190611b01565b60405180910390f35b3480156101e757600080fd5b506101f06104d3565b6040516101fd9190611984565b60405180910390f35b34801561021257600080fd5b5061021b6105c1565b6040516102289190611947565b60405180910390f35b34801561023d57600080fd5b50610258600480360381019061025391906113bc565b6105e7565b005b34801561026657600080fd5b5061026f610891565b60405161027c9190611962565b60405180910390f35b34801561029157600080fd5b5061029a61091f565b005b3480156102a857600080fd5b506102b16109a7565b6040516102be91906119a6565b60405180910390f35b3480156102d357600080fd5b506102dc6109ba565b6040516102e99190611911565b60405180910390f35b3480156102fe57600080fd5b5061031960048036038101906103149190611393565b6109e3565b60405161032a959493929190611b1c565b60405180910390f35b34801561033f57600080fd5b5061035a60048036038101906103559190611393565b610a56565b005b34801561036857600080fd5b50610383600480360381019061037e9190611393565b611002565b6040516103909190611911565b60405180910390f35b3480156103a557600080fd5b506103ae611041565b6040516103bb9190611b01565b60405180910390f35b3480156103d057600080fd5b506103d9611047565b6040516103e69190611b01565b60405180910390f35b3480156103fb57600080fd5b506104166004803603810190610411919061136a565b611167565b005b600a81565b600047905090565b61042d61125f565b73ffffffffffffffffffffffffffffffffffffffff1661044b6109ba565b73ffffffffffffffffffffffffffffffffffffffff16146104a1576040517f08c379a000000000000000000000000000000000000000000000000000000000815260040161049890611a41565b60405180910390fd5b600560009054906101000a900460ff1615600560006101000a81548160ff021916908315150217905550565b60025481565b60606006805480602002602001604051908101604052809291908181526020016000905b828210156105b857838290600052602060002090600502016040518060a001604052908160008201548152602001600182015481526020016002820160009054906101000a900473ffffffffffffffffffffffffffffffffffffffff1673ffffffffffffffffffffffffffffffffffffffff1673ffffffffffffffffffffffffffffffffffffffff168152602001600382015481526020016004820160009054906101000a900460ff161515151581525050815260200190600101906104f7565b50505050905090565b600360009054906101000a900473ffffffffffffffffffffffffffffffffffffffff1681565b600360009054906101000a900473ffffffffffffffffffffffffffffffffffffffff1673ffffffffffffffffffffffffffffffffffffffff163373ffffffffffffffffffffffffffffffffffffffff1614610677576040517f08c379a000000000000000000000000000000000000000000000000000000000815260040161066e906119e1565b60405180910390fd5b600560009054906101000a900460ff16156106c7576040517f08c379a00000000000000000000000000000000000000000000000000000000081526004016106be90611a01565b60405180910390fd5b631e19cf806004546106d99190611bf2565b421161071a576040517f08c379a000000000000000000000000000000000000000000000000000000000815260040161071190611a61565b60405180910390fd5b6000471161075d576040517f08c379a000000000000000000000000000000000000000000000000000000000815260040161075490611ae1565b60405180910390fd5b817fec633583b4618456de8f6a7d1c8c87f24831d9422af8bd760673af7b7b2bce1c8260405161078d919061192c565b60405180910390a260066040518060a0016040528060068054905081526020018481526020018373ffffffffffffffffffffffffffffffffffffffff16815260200160008152602001600015158152509080600181540180825580915050600190039060005260206000209060050201600090919091909150600082015181600001556020820151816001015560408201518160020160006101000a81548173ffffffffffffffffffffffffffffffffffffffff021916908373ffffffffffffffffffffffffffffffffffffffff1602179055506060820151816003015560808201518160040160006101000a81548160ff02191690831515021790555050505050565b6060600180548060200260200160405190810160405280929190818152602001828054801561091557602002820191906000526020600020905b8160009054906101000a900473ffffffffffffffffffffffffffffffffffffffff1673ffffffffffffffffffffffffffffffffffffffff16815260200190600101908083116108cb575b5050505050905090565b61092761125f565b73ffffffffffffffffffffffffffffffffffffffff166109456109ba565b73ffffffffffffffffffffffffffffffffffffffff161461099b576040517f08c379a000000000000000000000000000000000000000000000000000000000815260040161099290611a41565b60405180910390fd5b6109a56000611267565b565b600560009054906101000a900460ff1681565b60008060009054906101000a900473ffffffffffffffffffffffffffffffffffffffff16905090565b600681815481106109f357600080fd5b90600052602060002090600502016000915090508060000154908060010154908060020160009054906101000a900473ffffffffffffffffffffffffffffffffffffffff16908060030154908060040160009054906101000a900460ff16905085565b6000805b600180549050811015610b17573373ffffffffffffffffffffffffffffffffffffffff1660018281548110610ab8577f4e487b7100000000000000000000000000000000000000000000000000000000600052603260045260246000fd5b9060005260206000200160009054906101000a900473ffffffffffffffffffffffffffffffffffffffff1673ffffffffffffffffffffffffffffffffffffffff161415610b0457600191505b8080610b0f90611cd8565b915050610a5a565b506001151581151514610b5f576040517f08c379a0000000000000000000000000000000000000000000000000000000008152600401610b5690611aa1565b60405180910390fd5b600560009054906101000a900460ff1615610baf576040517f08c379a0000000000000000000000000000000000000000000000000000000008152600401610ba690611a01565b60405180910390fd5b631e19cf80600454610bc19190611bf2565b4211610c02576040517f08c379a0000000000000000000000000000000000000000000000000000000008152600401610bf990611a61565b60405180910390fd5b6000151560068381548110610c40577f4e487b7100000000000000000000000000000000000000000000000000000000600052603260045260246000fd5b906000526020600020906005020160040160009054906101000a900460ff16151514610ca1576040517f08c379a0000000000000000000000000000000000000000000000000000000008152600401610c9890611ac1565b60405180910390fd5b60001515600760003373ffffffffffffffffffffffffffffffffffffffff1673ffffffffffffffffffffffffffffffffffffffff168152602001908152602001600020600084815260200190815260200160002060009054906101000a900460ff16151514610d45576040517f08c379a0000000000000000000000000000000000000000000000000000000008152600401610d3c90611a21565b60405180910390fd5b817f63604a62b82551ddafaa079f04fab31da901c0fe468d923386068911d131dfe860405160405180910390a26001600760003373ffffffffffffffffffffffffffffffffffffffff1673ffffffffffffffffffffffffffffffffffffffff168152602001908152602001600020600084815260200190815260200160002060006101000a81548160ff02191690831515021790555060068281548110610e15577f4e487b7100000000000000000000000000000000000000000000000000000000600052603260045260246000fd5b90600052602060002090600502016003016000815480929190610e3790611cd8565b919050555060025460068381548110610e79577f4e487b7100000000000000000000000000000000000000000000000000000000600052603260045260246000fd5b90600052602060002090600502016003015410610ffe57600160068381548110610ecc577f4e487b7100000000000000000000000000000000000000000000000000000000600052603260045260246000fd5b906000526020600020906005020160040160006101000a81548160ff021916908315150217905550600060068381548110610f30577f4e487b7100000000000000000000000000000000000000000000000000000000600052603260045260246000fd5b906000526020600020906005020160020160009054906101000a900473ffffffffffffffffffffffffffffffffffffffff169050600060068481548110610fa0577f4e487b7100000000000000000000000000000000000000000000000000000000600052603260045260246000fd5b90600052602060002090600502016001015490508173ffffffffffffffffffffffffffffffffffffffff166108fc829081150290604051600060405180830381858888f19350505050158015610ffa573d6000803e3d6000fd5b5050505b5050565b6001818154811061101257600080fd5b906000526020600020016000915054906101000a900473ffffffffffffffffffffffffffffffffffffffff1681565b60045481565b6000600360009054906101000a900473ffffffffffffffffffffffffffffffffffffffff1673ffffffffffffffffffffffffffffffffffffffff163373ffffffffffffffffffffffffffffffffffffffff16146110d9576040517f08c379a00000000000000000000000000000000000000000000000000000000081526004016110d0906119e1565b60405180910390fd5b6321d993806004546110eb9190611bf2565b421161112c576040517f08c379a000000000000000000000000000000000000000000000000000000000815260040161112390611a81565b60405180910390fd5b600360009054906101000a900473ffffffffffffffffffffffffffffffffffffffff1673ffffffffffffffffffffffffffffffffffffffff16ff5b61116f61125f565b73ffffffffffffffffffffffffffffffffffffffff1661118d6109ba565b73ffffffffffffffffffffffffffffffffffffffff16146111e3576040517f08c379a00000000000000000000000000000000000000000000000000000000081526004016111da90611a41565b60405180910390fd5b600073ffffffffffffffffffffffffffffffffffffffff168173ffffffffffffffffffffffffffffffffffffffff161415611253576040517f08c379a000000000000000000000000000000000000000000000000000000000815260040161124a906119c1565b60405180910390fd5b61125c81611267565b50565b600033905090565b60008060009054906101000a900473ffffffffffffffffffffffffffffffffffffffff169050816000806101000a81548173ffffffffffffffffffffffffffffffffffffffff021916908373ffffffffffffffffffffffffffffffffffffffff1602179055508173ffffffffffffffffffffffffffffffffffffffff168173ffffffffffffffffffffffffffffffffffffffff167f8be0079c531659141344cd1fd0a4f28419497f9722a3daafe3b4186f6b6457e060405160405180910390a35050565b60008135905061133a81611d50565b92915050565b60008135905061134f81611d67565b92915050565b60008135905061136481611d7e565b92915050565b60006020828403121561137c57600080fd5b600061138a8482850161132b565b91505092915050565b6000602082840312156113a557600080fd5b60006113b384828501611355565b91505092915050565b600080604083850312156113cf57600080fd5b60006113dd85828601611355565b92505060206113ee85828601611340565b9150509250929050565b60006114048383611455565b60208301905092915050565b600061141c838361188b565b60a08301905092915050565b61143181611ca2565b82525050565b61144081611c5a565b82525050565b61144f81611c5a565b82525050565b61145e81611c48565b82525050565b61146d81611c48565b82525050565b600061147e82611b8f565b6114888185611bbf565b935061149383611b6f565b8060005b838110156114c45781516114ab88826113f8565b97506114b683611ba5565b925050600181019050611497565b5085935050505092915050565b60006114dc82611b9a565b6114e68185611bd0565b93506114f183611b7f565b8060005b838110156115225781516115098882611410565b975061151483611bb2565b9250506001810190506114f5565b5085935050505092915050565b61153881611c6c565b82525050565b61154781611c6c565b82525050565b600061155a602683611be1565b91507f4f776e61626c653a206e6577206f776e657220697320746865207a65726f206160008301527f64647265737300000000000000000000000000000000000000000000000000006020830152604082019050919050565b60006115c0602d83611be1565b91507f596f7520617265206e6f74207468652042656e6566696369617279206f66207460008301527f68697320636f6e747261637421000000000000000000000000000000000000006020830152604082019050919050565b6000611626602283611be1565b91507f5468697320636f6e74726163742069732063757272656e746c792073746f707060008301527f65640000000000000000000000000000000000000000000000000000000000006020830152604082019050919050565b600061168c602b83611be1565b91507f43616e6e6f7420617070726f7665207472616e7366657220666f72207468652060008301527f7365636f6e642074696d650000000000000000000000000000000000000000006020830152604082019050919050565b60006116f2602083611be1565b91507f4f776e61626c653a2063616c6c6572206973206e6f7420746865206f776e65726000830152602082019050919050565b6000611732602083611be1565b91507f42656e6566696369617279206973206e6f74203136207965617273206f6c642e6000830152602082019050919050565b6000611772602083611be1565b91507f42656e6566696369617279206973206e6f74203138207965617273206f6c642e6000830152602082019050919050565b60006117b2601583611be1565b91507f56616c696420617070726f76657273206f6e6c792e00000000000000000000006000830152602082019050919050565b60006117f2601e83611be1565b91507f5472616e736665722068617320616c7265616479206265656e2073656e7400006000830152602082019050919050565b6000611832602283611be1565b91507f5468657265206973207a65726f20457468657220696e20746869732077616c6c60008301527f65740000000000000000000000000000000000000000000000000000000000006020830152604082019050919050565b60a0820160008201516118a160008501826118f3565b5060208201516118b460208501826118f3565b5060408201516118c76040850182611437565b5060608201516118da60608501826118f3565b5060808201516118ed608085018261152f565b50505050565b6118fc81611c98565b82525050565b61190b81611c98565b82525050565b60006020820190506119266000830184611464565b92915050565b60006020820190506119416000830184611428565b92915050565b600060208201905061195c6000830184611446565b92915050565b6000602082019050818103600083015261197c8184611473565b905092915050565b6000602082019050818103600083015261199e81846114d1565b905092915050565b60006020820190506119bb600083018461153e565b92915050565b600060208201905081810360008301526119da8161154d565b9050919050565b600060208201905081810360008301526119fa816115b3565b9050919050565b60006020820190508181036000830152611a1a81611619565b9050919050565b60006020820190508181036000830152611a3a8161167f565b9050919050565b60006020820190508181036000830152611a5a816116e5565b9050919050565b60006020820190508181036000830152611a7a81611725565b9050919050565b60006020820190508181036000830152611a9a81611765565b9050919050565b60006020820190508181036000830152611aba816117a5565b9050919050565b60006020820190508181036000830152611ada816117e5565b9050919050565b60006020820190508181036000830152611afa81611825565b9050919050565b6000602082019050611b166000830184611902565b92915050565b600060a082019050611b316000830188611902565b611b3e6020830187611902565b611b4b6040830186611446565b611b586060830185611902565b611b65608083018461153e565b9695505050505050565b6000819050602082019050919050565b6000819050602082019050919050565b600081519050919050565b600081519050919050565b6000602082019050919050565b6000602082019050919050565b600082825260208201905092915050565b600082825260208201905092915050565b600082825260208201905092915050565b6000611bfd82611c98565b9150611c0883611c98565b9250827fffffffffffffffffffffffffffffffffffffffffffffffffffffffffffffffff03821115611c3d57611c3c611d21565b5b828201905092915050565b6000611c5382611c78565b9050919050565b6000611c6582611c78565b9050919050565b60008115159050919050565b600073ffffffffffffffffffffffffffffffffffffffff82169050919050565b6000819050919050565b6000611cad82611cb4565b9050919050565b6000611cbf82611cc6565b9050919050565b6000611cd182611c78565b9050919050565b6000611ce382611c98565b91507fffffffffffffffffffffffffffffffffffffffffffffffffffffffffffffffff821415611d1657611d15611d21565b5b600182019050919050565b7f4e487b7100000000000000000000000000000000000000000000000000000000600052601160045260246000fd5b611d5981611c48565b8114611d6457600080fd5b50565b611d7081611c5a565b8114611d7b57600080fd5b50565b611d8781611c98565b8114611d9257600080fd5b5056fea2646970667358221220f36137fe8b918584dc11e919eec630845cb2c7e294bc7cbb6931fe68ae3066f264736f6c63430008000033",
  "immutableReferences": {},
  "source": "//SPDX-License-Identifier: Open Source\n\npragma solidity ^0.8.0;\n\nimport \"@openzeppelin/contracts/access/Ownable.sol\";\n\n/// @title CGFMWallet: Crypto Gifts For Minors Wallet\n/// @author Hico\n/// @notice This contract has not been audited\n/// @dev No side effects\ncontract Wallet is Ownable {\n   \n    address[] public approvers;\n    uint public quorum;\n    uint constant public MAX_APPROVER_COUNT = 10;\n\n    address payable public beneficiary;\n    uint public creationTime = block.timestamp; \n    bool public stopped = false; \n\n    struct Transfer {\n        uint id;\n        uint amount;\n        address payable to;\n        uint approvals;\n        bool sent;\n    }\n    Transfer[] public transfers; \n    mapping(address => mapping(uint => bool)) private approvals; \n\n    event EthReceived(address user, uint indexed amount);\n    event WithdrawalRequested(uint indexed amount, address to);\n    event WithdrawalApproved(uint indexed id);\n\n    /// @notice Create Ownable MultiSig Timelock wallet with chosen approvers and amount of approvals needed for quorum\n    /// @dev \n    /// @param _approvers addresses which are approvers of the Multi-Sig\n    /// @param _quorum amount of approvers needed to send transfer\n    /// @param _beneficiary only address which can request a 'send transfer' and 'close wallet' function.\n    constructor(address[] memory _approvers, uint _quorum, address payable _beneficiary) validRequirement(_approvers.length, _quorum) {\n        approvers = _approvers;\n        quorum = _quorum;\n        beneficiary = _beneficiary;\n    }\n\n    /// @notice Can send Eth to this wallet without any data\n    /// @dev Receive function\n    receive() external payable {\n        emit EthReceived(msg.sender, msg.value);\n    }\n\n    /// @notice The function that is executed if not other fucntion matches the call\n    /// @dev Fallback function\n    fallback() external payable {}\n    \n    /// @notice Get the address list of approvers\n    /// @dev\n    /// @return Addresses of approvers\n    function getApprovers() external view returns(address[] memory) {\n        return approvers;\n    }\n    \n    /// @notice Get the list and details of transfers \n    /// @dev\n    /// @return Transfers list\n    function getTransfers() external view returns(Transfer[] memory) {\n        return transfers;\n    }\n    \n    /// @notice When the contract turns 16, only beneficiary may request to withdraw Eth\n    /// @dev \n    /// @param amount is the amount of Eth the beneficiary wants to withdraw\n    /// @param to is the address that the beneficiary wants to send Eth to\n    function createTransfer(uint amount, address payable to) external onlyBeneficiary() stopInEmergency() timeLock16() {\n        require(address(this).balance > 0, 'There is zero Ether in this wallet');\n        emit WithdrawalRequested(amount, to);\n        transfers.push(Transfer(\n            transfers.length,\n            amount,\n            to,\n            0,\n            false\n        ));\n    }\n    \n    /// @notice Approvers can approve a transfer request\n    /// @dev\n    /// @param id is the indexed transaction id number\n    function approveTransfer(uint id) public onlyApprover() stopInEmergency() timeLock16() { \n        require(transfers[id].sent == false, 'Transfer has already been sent');\n        require(approvals[msg.sender][id] == false, 'Cannot approve transfer for the second time');\n        emit WithdrawalApproved(id);\n        \n        approvals[msg.sender][id] = true;\n        transfers[id].approvals++;\n        \n        if(transfers[id].approvals >= quorum) {\n            transfers[id].sent = true;\n            address payable to = transfers[id].to;\n            uint amount = transfers[id].amount;\n            to.transfer(amount); \n        }\n    }\n    \n    /// @notice View balance of this contract\n    /// @dev\n    /// @return Balance of this contract \n    function getBalance() view public returns(uint) {\n        return address(this).balance;\n    }\n\n    /// @notice Toggle contract active by limiting certain functions\n    /// @dev Circuit breaker \n    function toggleContractActive() onlyOwner public {\n        stopped = !stopped;\n    }\n\n    /// @notice Beneficiary can choose to withdraw all Eth and close this contract\n    /// @dev Selfdestruct function\n    /// @return Balance of this address \n    function closeWallet() public onlyBeneficiary() timeLock18() returns(uint) {\n        selfdestruct(beneficiary);\n        return(address(this).balance);\n    }\n\n    modifier validRequirement(uint approverCount, uint _quorom) {\n        require(approverCount <= MAX_APPROVER_COUNT\n            && _quorom <= approverCount\n            && _quorom != 0\n            && approverCount != 0);\n        _;\n    }\n    \n    modifier onlyApprover() {\n        bool allowed = false;\n        for(uint i = 0; i < approvers.length; i++) {\n            if(approvers[i] == msg.sender) {\n                allowed = true;\n            }\n        }\n        require(allowed == true, 'Valid approvers only.');\n        _;\n    }\n\n    modifier onlyBeneficiary() {\n        require(msg.sender == beneficiary, \"You are not the Beneficiary of this contract!\");\n        _; \n    }\n\n    modifier timeLock16() {\n        require(block.timestamp > (creationTime + 835 weeks), 'Beneficiary is not 16 years old.');\n        _;\n    }\n      \n    modifier timeLock18() {\n        require(block.timestamp > (creationTime + 939 weeks), 'Beneficiary is not 18 years old.');\n        _;\n    }\n\n    modifier stopInEmergency() { \n        require(!stopped, 'This contract is currently stopped'); \n        _; \n    }\n}\n",
  "sourcePath": "/home/h1c0/Documents/H1c0/3)GITHUB/CryptoGifts/contracts/Wallet.sol",
  "compiler": {
    "name": "solc",
    "version": "0.8.0+commit.c7dfd78e.Emscripten.clang"
  },
  "schemaVersion": "3.4.4",
  "updatedAt": "2022-01-20T11:24:56.724Z",
  "devdoc": {
    "author": "Hico",
    "details": "No side effects",
    "kind": "dev",
    "methods": {
      "approveTransfer(uint256)": {
        "details": "@param id is the indexed transaction id number"
      },
      "closeWallet()": {
        "details": "Selfdestruct function",
        "returns": {
          "_0": "Balance of this address "
        }
      },
      "constructor": {
        "params": {
          "_approvers": "addresses which are approvers of the Multi-Sig",
          "_beneficiary": "only address which can request a 'send transfer' and 'close wallet' function.",
          "_quorum": "amount of approvers needed to send transfer"
        }
      },
      "createTransfer(uint256,address)": {
        "params": {
          "amount": "is the amount of Eth the beneficiary wants to withdraw",
          "to": "is the address that the beneficiary wants to send Eth to"
        }
      },
      "getApprovers()": {
        "details": "@return Addresses of approvers"
      },
      "getBalance()": {
        "details": "@return Balance of this contract "
      },
      "getTransfers()": {
        "details": "@return Transfers list"
      },
      "owner()": {
        "details": "Returns the address of the current owner."
      },
      "renounceOwnership()": {
        "details": "Leaves the contract without owner. It will not be possible to call `onlyOwner` functions anymore. Can only be called by the current owner. NOTE: Renouncing ownership will leave the contract without an owner, thereby removing any functionality that is only available to the owner."
      },
      "toggleContractActive()": {
        "details": "Circuit breaker "
      },
      "transferOwnership(address)": {
        "details": "Transfers ownership of the contract to a new account (`newOwner`). Can only be called by the current owner."
      }
    },
    "title": "CGFMWallet: Crypto Gifts For Minors Wallet",
    "version": 1
  },
  "userdoc": {
    "kind": "user",
    "methods": {
      "approveTransfer(uint256)": {
        "notice": "Approvers can approve a transfer request"
      },
      "closeWallet()": {
        "notice": "Beneficiary can choose to withdraw all Eth and close this contract"
      },
      "constructor": {
        "notice": "Create Ownable MultiSig Timelock wallet with chosen approvers and amount of approvals needed for quorum"
      },
      "createTransfer(uint256,address)": {
        "notice": "When the contract turns 16, only beneficiary may request to withdraw Eth"
      },
      "getApprovers()": {
        "notice": "Get the address list of approvers"
      },
      "getBalance()": {
        "notice": "View balance of this contract"
      },
      "getTransfers()": {
        "notice": "Get the list and details of transfers "
      },
      "toggleContractActive()": {
        "notice": "Toggle contract active by limiting certain functions"
      }
    },
    "notice": "This contract has not been audited",
    "version": 1
  }
}