{
  "contractName": "Wallet",
  "abi": [
    {
      "inputs": [
        {
          "internalType": "address[]",
          "name": "_approvers",
          "type": "address[]"
        },
        {
          "internalType": "uint256",
          "name": "_quorum",
          "type": "uint256"
        },
        {
          "internalType": "address payable",
          "name": "_beneficiary",
          "type": "address"
        }
      ],
      "stateMutability": "nonpayable",
      "type": "constructor"
    },
    {
      "anonymous": false,
      "inputs": [
        {
          "indexed": false,
          "internalType": "address",
          "name": "user",
          "type": "address"
        },
        {
          "indexed": true,
          "internalType": "uint256",
          "name": "amount",
          "type": "uint256"
        }
      ],
      "name": "EthReceived",
      "type": "event"
    },
    {
      "anonymous": false,
      "inputs": [
        {
          "indexed": true,
          "internalType": "address",
          "name": "previousOwner",
          "type": "address"
        },
        {
          "indexed": true,
          "internalType": "address",
          "name": "newOwner",
          "type": "address"
        }
      ],
      "name": "OwnershipTransferred",
      "type": "event"
    },
    {
      "anonymous": false,
      "inputs": [
        {
          "indexed": true,
          "internalType": "uint256",
          "name": "id",
          "type": "uint256"
        }
      ],
      "name": "WithdrawalApproved",
      "type": "event"
    },
    {
      "anonymous": false,
      "inputs": [
        {
          "indexed": true,
          "internalType": "uint256",
          "name": "amount",
          "type": "uint256"
        },
        {
          "indexed": false,
          "internalType": "address",
          "name": "to",
          "type": "address"
        }
      ],
      "name": "WithdrawalRequested",
      "type": "event"
    },
    {
      "stateMutability": "payable",
      "type": "fallback",
      "payable": true
    },
    {
      "inputs": [],
      "name": "MAX_APPROVER_COUNT",
      "outputs": [
        {
          "internalType": "uint256",
          "name": "",
          "type": "uint256"
        }
      ],
      "stateMutability": "view",
      "type": "function",
      "constant": true
    },
    {
      "inputs": [
        {
          "internalType": "uint256",
          "name": "",
          "type": "uint256"
        }
      ],
      "name": "approvers",
      "outputs": [
        {
          "internalType": "address",
          "name": "",
          "type": "address"
        }
      ],
      "stateMutability": "view",
      "type": "function",
      "constant": true
    },
    {
      "inputs": [],
      "name": "beneficiary",
      "outputs": [
        {
          "internalType": "address payable",
          "name": "",
          "type": "address"
        }
      ],
      "stateMutability": "view",
      "type": "function",
      "constant": true
    },
    {
      "inputs": [],
      "name": "creationTime",
      "outputs": [
        {
          "internalType": "uint256",
          "name": "",
          "type": "uint256"
        }
      ],
      "stateMutability": "view",
      "type": "function",
      "constant": true
    },
    {
      "inputs": [],
      "name": "owner",
      "outputs": [
        {
          "internalType": "address",
          "name": "",
          "type": "address"
        }
      ],
      "stateMutability": "view",
      "type": "function",
      "constant": true
    },
    {
      "inputs": [],
      "name": "quorum",
      "outputs": [
        {
          "internalType": "uint256",
          "name": "",
          "type": "uint256"
        }
      ],
      "stateMutability": "view",
      "type": "function",
      "constant": true
    },
    {
      "inputs": [],
      "name": "renounceOwnership",
      "outputs": [],
      "stateMutability": "nonpayable",
      "type": "function"
    },
    {
      "inputs": [],
      "name": "stopped",
      "outputs": [
        {
          "internalType": "bool",
          "name": "",
          "type": "bool"
        }
      ],
      "stateMutability": "view",
      "type": "function",
      "constant": true
    },
    {
      "inputs": [
        {
          "internalType": "address",
          "name": "newOwner",
          "type": "address"
        }
      ],
      "name": "transferOwnership",
      "outputs": [],
      "stateMutability": "nonpayable",
      "type": "function"
    },
    {
      "inputs": [
        {
          "internalType": "uint256",
          "name": "",
          "type": "uint256"
        }
      ],
      "name": "transfers",
      "outputs": [
        {
          "internalType": "uint256",
          "name": "id",
          "type": "uint256"
        },
        {
          "internalType": "uint256",
          "name": "amount",
          "type": "uint256"
        },
        {
          "internalType": "address payable",
          "name": "to",
          "type": "address"
        },
        {
          "internalType": "uint256",
          "name": "approvals",
          "type": "uint256"
        },
        {
          "internalType": "bool",
          "name": "sent",
          "type": "bool"
        }
      ],
      "stateMutability": "view",
      "type": "function",
      "constant": true
    },
    {
      "stateMutability": "payable",
      "type": "receive",
      "payable": true
    },
    {
      "inputs": [],
      "name": "getApprovers",
      "outputs": [
        {
          "internalType": "address[]",
          "name": "",
          "type": "address[]"
        }
      ],
      "stateMutability": "view",
      "type": "function",
      "constant": true
    },
    {
      "inputs": [],
      "name": "getTransfers",
      "outputs": [
        {
          "components": [
            {
              "internalType": "uint256",
              "name": "id",
              "type": "uint256"
            },
            {
              "internalType": "uint256",
              "name": "amount",
              "type": "uint256"
            },
            {
              "internalType": "address payable",
              "name": "to",
              "type": "address"
            },
            {
              "internalType": "uint256",
              "name": "approvals",
              "type": "uint256"
            },
            {
              "internalType": "bool",
              "name": "sent",
              "type": "bool"
            }
          ],
          "internalType": "struct Wallet.Transfer[]",
          "name": "",
          "type": "tuple[]"
        }
      ],
      "stateMutability": "view",
      "type": "function",
      "constant": true
    },
    {
      "inputs": [
        {
          "internalType": "uint256",
          "name": "amount",
          "type": "uint256"
        },
        {
          "internalType": "address payable",
          "name": "to",
          "type": "address"
        }
      ],
      "name": "createTransfer",
      "outputs": [],
      "stateMutability": "nonpayable",
      "type": "function"
    },
    {
      "inputs": [
        {
          "internalType": "uint256",
          "name": "id",
          "type": "uint256"
        }
      ],
      "name": "approveTransfer",
      "outputs": [],
      "stateMutability": "nonpayable",
      "type": "function"
    },
    {
      "inputs": [],
      "name": "getBalance",
      "outputs": [
        {
          "internalType": "uint256",
          "name": "",
          "type": "uint256"
        }
      ],
      "stateMutability": "view",
      "type": "function",
      "constant": true
    },
    {
      "inputs": [],
      "name": "toggleContractActive",
      "outputs": [],
      "stateMutability": "nonpayable",
      "type": "function"
    },
    {
      "inputs": [],
      "name": "closeWallet",
      "outputs": [
        {
          "internalType": "uint256",
          "name": "",
          "type": "uint256"
        }
      ],
      "stateMutability": "nonpayable",
      "type": "function"
    }
  ],
  "bytecode": "0x6080604052426004556000600560006101000a81548160ff0219169083151502179055503480156200003057600080fd5b50604051620021373803806200213783398181016040526200005691908101906200035c565b600062000068620001ad60201b60201c565b9050806000806101000a81548173ffffffffffffffffffffffffffffffffffffffff021916908373ffffffffffffffffffffffffffffffffffffffff1602179055508073ffffffffffffffffffffffffffffffffffffffff16600073ffffffffffffffffffffffffffffffffffffffff167f8be0079c531659141344cd1fd0a4f28419497f9722a3daafe3b4186f6b6457e060405160405180910390a350825182600a82111580156200011b5750818111155b801562000129575060008114155b801562000137575060008214155b6200014157600080fd5b846001908051906020019062000159929190620001b5565b508360028190555082600360006101000a81548173ffffffffffffffffffffffffffffffffffffffff021916908373ffffffffffffffffffffffffffffffffffffffff1602179055505050505050620004c2565b600033905090565b82805482825590600052602060002090810192821562000231579160200282015b82811115620002305782518260006101000a81548173ffffffffffffffffffffffffffffffffffffffff021916908373ffffffffffffffffffffffffffffffffffffffff16021790555091602001919060010190620001d6565b5b50905062000240919062000244565b5090565b6200028791905b808211156200028357600081816101000a81549073ffffffffffffffffffffffffffffffffffffffff0219169055506001016200024b565b5090565b90565b6000815190506200029b8162000474565b92915050565b600081519050620002b2816200048e565b92915050565b600082601f830112620002ca57600080fd5b8151620002e1620002db82620003f9565b620003cb565b915081818352602084019350602081019050838560208402820111156200030757600080fd5b60005b838110156200033b57816200032088826200028a565b8452602084019350602083019250506001810190506200030a565b5050505092915050565b6000815190506200035681620004a8565b92915050565b6000806000606084860312156200037257600080fd5b600084015167ffffffffffffffff8111156200038d57600080fd5b6200039b86828701620002b8565b9350506020620003ae8682870162000345565b9250506040620003c186828701620002a1565b9150509250925092565b6000604051905081810181811067ffffffffffffffff82111715620003ef57600080fd5b8060405250919050565b600067ffffffffffffffff8211156200041157600080fd5b602082029050602081019050919050565b60006200042f826200044a565b9050919050565b600062000443826200044a565b9050919050565b600073ffffffffffffffffffffffffffffffffffffffff82169050919050565b6000819050919050565b6200047f8162000422565b81146200048b57600080fd5b50565b620004998162000436565b8114620004a557600080fd5b50565b620004b3816200046a565b8114620004bf57600080fd5b50565b611c6580620004d26000396000f3fe6080604052600436106101025760003560e01c8063715018a611610095578063cacca4a011610064578063cacca4a014610333578063d3650fb81461035c578063d8270dce14610399578063d892ddfc146103c4578063f2fde38b146103ef57610141565b8063715018a61461028557806375f12b211461029c5780638da5cb5b146102c75780639377d711146102f257610141565b80632f65142c116100d15780632f65142c146101db57806338af3eed146102065780634c12fa47146102315780636cb3e8ef1461025a57610141565b806304c4d1661461014357806312065fe01461016e5780631385d24c146101995780631703a018146101b057610141565b3661014157347f85177f287940f2f05425a4029951af0e047a7f9c4eaa9a6e6917bcd869f86695336040516101379190611894565b60405180910390a2005b005b34801561014f57600080fd5b50610158610418565b6040516101659190611a69565b60405180910390f35b34801561017a57600080fd5b5061018361041d565b6040516101909190611a69565b60405180910390f35b3480156101a557600080fd5b506101ae610425565b005b3480156101bc57600080fd5b506101c56104e7565b6040516101d29190611a69565b60405180910390f35b3480156101e757600080fd5b506101f06104ed565b6040516101fd91906118ec565b60405180910390f35b34801561021257600080fd5b5061021b6105db565b60405161022891906118af565b60405180910390f35b34801561023d57600080fd5b506102586004803603610253919081019061134a565b610601565b005b34801561026657600080fd5b5061026f6108a2565b60405161027c91906118ca565b60405180910390f35b34801561029157600080fd5b5061029a610930565b005b3480156102a857600080fd5b506102b1610a85565b6040516102be919061190e565b60405180910390f35b3480156102d357600080fd5b506102dc610a98565b6040516102e99190611879565b60405180910390f35b3480156102fe57600080fd5b5061031960048036036103149190810190611321565b610ac1565b60405161032a959493929190611a84565b60405180910390f35b34801561033f57600080fd5b5061035a60048036036103559190810190611321565b610b31565b005b34801561036857600080fd5b50610383600480360361037e9190810190611321565b610f94565b6040516103909190611879565b60405180910390f35b3480156103a557600080fd5b506103ae610fd0565b6040516103bb9190611a69565b60405180910390f35b3480156103d057600080fd5b506103d9610fd6565b6040516103e69190611a69565b60405180910390f35b3480156103fb57600080fd5b50610416600480360361041191908101906112f8565b6110ed565b005b600a81565b600047905090565b61042d6112b1565b73ffffffffffffffffffffffffffffffffffffffff166000809054906101000a900473ffffffffffffffffffffffffffffffffffffffff1673ffffffffffffffffffffffffffffffffffffffff16146104bb576040517f08c379a00000000000000000000000000000000000000000000000000000000081526004016104b2906119c9565b60405180910390fd5b600560009054906101000a900460ff1615600560006101000a81548160ff021916908315150217905550565b60025481565b60606006805480602002602001604051908101604052809291908181526020016000905b828210156105d257838290600052602060002090600502016040518060a001604052908160008201548152602001600182015481526020016002820160009054906101000a900473ffffffffffffffffffffffffffffffffffffffff1673ffffffffffffffffffffffffffffffffffffffff1673ffffffffffffffffffffffffffffffffffffffff168152602001600382015481526020016004820160009054906101000a900460ff16151515158152505081526020019060010190610511565b50505050905090565b600360009054906101000a900473ffffffffffffffffffffffffffffffffffffffff1681565b600360009054906101000a900473ffffffffffffffffffffffffffffffffffffffff1673ffffffffffffffffffffffffffffffffffffffff163373ffffffffffffffffffffffffffffffffffffffff1614610691576040517f08c379a000000000000000000000000000000000000000000000000000000000815260040161068890611989565b60405180910390fd5b600560009054906101000a900460ff16156106e1576040517f08c379a00000000000000000000000000000000000000000000000000000000081526004016106d8906119a9565b60405180910390fd5b631e19cf8060045401421161072b576040517f08c379a0000000000000000000000000000000000000000000000000000000008152600401610722906119e9565b60405180910390fd5b6000471161076e576040517f08c379a000000000000000000000000000000000000000000000000000000000815260040161076590611a49565b60405180910390fd5b817fec633583b4618456de8f6a7d1c8c87f24831d9422af8bd760673af7b7b2bce1c8260405161079e9190611894565b60405180910390a260066040518060a0016040528060068054905081526020018481526020018373ffffffffffffffffffffffffffffffffffffffff16815260200160008152602001600015158152509080600181540180825580915050600190039060005260206000209060050201600090919091909150600082015181600001556020820151816001015560408201518160020160006101000a81548173ffffffffffffffffffffffffffffffffffffffff021916908373ffffffffffffffffffffffffffffffffffffffff1602179055506060820151816003015560808201518160040160006101000a81548160ff02191690831515021790555050505050565b6060600180548060200260200160405190810160405280929190818152602001828054801561092657602002820191906000526020600020905b8160009054906101000a900473ffffffffffffffffffffffffffffffffffffffff1673ffffffffffffffffffffffffffffffffffffffff16815260200190600101908083116108dc575b5050505050905090565b6109386112b1565b73ffffffffffffffffffffffffffffffffffffffff166000809054906101000a900473ffffffffffffffffffffffffffffffffffffffff1673ffffffffffffffffffffffffffffffffffffffff16146109c6576040517f08c379a00000000000000000000000000000000000000000000000000000000081526004016109bd906119c9565b60405180910390fd5b600073ffffffffffffffffffffffffffffffffffffffff166000809054906101000a900473ffffffffffffffffffffffffffffffffffffffff1673ffffffffffffffffffffffffffffffffffffffff167f8be0079c531659141344cd1fd0a4f28419497f9722a3daafe3b4186f6b6457e060405160405180910390a360008060006101000a81548173ffffffffffffffffffffffffffffffffffffffff021916908373ffffffffffffffffffffffffffffffffffffffff160217905550565b600560009054906101000a900460ff1681565b60008060009054906101000a900473ffffffffffffffffffffffffffffffffffffffff16905090565b60068181548110610ace57fe5b90600052602060002090600502016000915090508060000154908060010154908060020160009054906101000a900473ffffffffffffffffffffffffffffffffffffffff16908060030154908060040160009054906101000a900460ff16905085565b600080905060008090505b600180549050811015610bc6573373ffffffffffffffffffffffffffffffffffffffff1660018281548110610b6d57fe5b9060005260206000200160009054906101000a900473ffffffffffffffffffffffffffffffffffffffff1673ffffffffffffffffffffffffffffffffffffffff161415610bb957600191505b8080600101915050610b3c565b506001151581151514610c0e576040517f08c379a0000000000000000000000000000000000000000000000000000000008152600401610c0590611969565b60405180910390fd5b600560009054906101000a900460ff1615610c5e576040517f08c379a0000000000000000000000000000000000000000000000000000000008152600401610c55906119a9565b60405180910390fd5b631e19cf80600454014211610ca8576040517f08c379a0000000000000000000000000000000000000000000000000000000008152600401610c9f906119e9565b60405180910390fd5b6000151560068381548110610cb957fe5b906000526020600020906005020160040160009054906101000a900460ff16151514610d1a576040517f08c379a0000000000000000000000000000000000000000000000000000000008152600401610d1190611929565b60405180910390fd5b60001515600760003373ffffffffffffffffffffffffffffffffffffffff1673ffffffffffffffffffffffffffffffffffffffff168152602001908152602001600020600084815260200190815260200160002060009054906101000a900460ff16151514610dbe576040517f08c379a0000000000000000000000000000000000000000000000000000000008152600401610db590611a29565b60405180910390fd5b817f63604a62b82551ddafaa079f04fab31da901c0fe468d923386068911d131dfe860405160405180910390a26001600760003373ffffffffffffffffffffffffffffffffffffffff1673ffffffffffffffffffffffffffffffffffffffff168152602001908152602001600020600084815260200190815260200160002060006101000a81548160ff02191690831515021790555060068281548110610e6157fe5b90600052602060002090600502016003016000815480929190600101919050555060025460068381548110610e9257fe5b90600052602060002090600502016003015410610f9057600160068381548110610eb857fe5b906000526020600020906005020160040160006101000a81548160ff021916908315150217905550600060068381548110610eef57fe5b906000526020600020906005020160020160009054906101000a900473ffffffffffffffffffffffffffffffffffffffff169050600060068481548110610f3257fe5b90600052602060002090600502016001015490508173ffffffffffffffffffffffffffffffffffffffff166108fc829081150290604051600060405180830381858888f19350505050158015610f8c573d6000803e3d6000fd5b5050505b5050565b60018181548110610fa157fe5b906000526020600020016000915054906101000a900473ffffffffffffffffffffffffffffffffffffffff1681565b60045481565b6000600360009054906101000a900473ffffffffffffffffffffffffffffffffffffffff1673ffffffffffffffffffffffffffffffffffffffff163373ffffffffffffffffffffffffffffffffffffffff1614611068576040517f08c379a000000000000000000000000000000000000000000000000000000000815260040161105f90611989565b60405180910390fd5b6321d993806004540142116110b2576040517f08c379a00000000000000000000000000000000000000000000000000000000081526004016110a990611a09565b60405180910390fd5b600360009054906101000a900473ffffffffffffffffffffffffffffffffffffffff1673ffffffffffffffffffffffffffffffffffffffff16ff5b6110f56112b1565b73ffffffffffffffffffffffffffffffffffffffff166000809054906101000a900473ffffffffffffffffffffffffffffffffffffffff1673ffffffffffffffffffffffffffffffffffffffff1614611183576040517f08c379a000000000000000000000000000000000000000000000000000000000815260040161117a906119c9565b60405180910390fd5b600073ffffffffffffffffffffffffffffffffffffffff168173ffffffffffffffffffffffffffffffffffffffff1614156111f3576040517f08c379a00000000000000000000000000000000000000000000000000000000081526004016111ea90611949565b60405180910390fd5b8073ffffffffffffffffffffffffffffffffffffffff166000809054906101000a900473ffffffffffffffffffffffffffffffffffffffff1673ffffffffffffffffffffffffffffffffffffffff167f8be0079c531659141344cd1fd0a4f28419497f9722a3daafe3b4186f6b6457e060405160405180910390a3806000806101000a81548173ffffffffffffffffffffffffffffffffffffffff021916908373ffffffffffffffffffffffffffffffffffffffff16021790555050565b600033905090565b6000813590506112c881611bea565b92915050565b6000813590506112dd81611c01565b92915050565b6000813590506112f281611c18565b92915050565b60006020828403121561130a57600080fd5b6000611318848285016112b9565b91505092915050565b60006020828403121561133357600080fd5b6000611341848285016112e3565b91505092915050565b6000806040838503121561135d57600080fd5b600061136b858286016112e3565b925050602061137c858286016112ce565b9150509250929050565b600061139283836113e3565b60208301905092915050565b60006113aa83836117f3565b60a08301905092915050565b6113bf81611bb4565b82525050565b6113ce81611b6c565b82525050565b6113dd81611b6c565b82525050565b6113ec81611b5a565b82525050565b6113fb81611b5a565b82525050565b600061140c82611af7565b6114168185611b27565b935061142183611ad7565b8060005b838110156114525781516114398882611386565b975061144483611b0d565b925050600181019050611425565b5085935050505092915050565b600061146a82611b02565b6114748185611b38565b935061147f83611ae7565b8060005b838110156114b0578151611497888261139e565b97506114a283611b1a565b925050600181019050611483565b5085935050505092915050565b6114c681611b7e565b82525050565b6114d581611b7e565b82525050565b60006114e8601e83611b49565b91507f7472616e736665722068617320616c7265616479206265656e2073656e7400006000830152602082019050919050565b6000611528602683611b49565b91507f4f776e61626c653a206e6577206f776e657220697320746865207a65726f206160008301527f64647265737300000000000000000000000000000000000000000000000000006020830152604082019050919050565b600061158e601583611b49565b91507f6f6e6c7920617070726f76657220616c6c6f77656400000000000000000000006000830152602082019050919050565b60006115ce602d83611b49565b91507f596f7520617265206e6f74207468652042656e6566696369617279206f66207460008301527f68697320636f6e747261637421000000000000000000000000000000000000006020830152604082019050919050565b6000611634602283611b49565b91507f5468697320636f6e74726163742069732063757272656e746c792073746f707060008301527f65640000000000000000000000000000000000000000000000000000000000006020830152604082019050919050565b600061169a602083611b49565b91507f4f776e61626c653a2063616c6c6572206973206e6f7420746865206f776e65726000830152602082019050919050565b60006116da602083611b49565b91507f42656e6566696369617279206973206e6f74203136207965617273206f6c642e6000830152602082019050919050565b600061171a602083611b49565b91507f42656e6566696369617279206973206e6f74203138207965617273206f6c642e6000830152602082019050919050565b600061175a601d83611b49565b91507f63616e6e6f7420617070726f7665207472616e736665722074776963650000006000830152602082019050919050565b600061179a602283611b49565b91507f5468657265206973207a65726f20457468657220696e20746869732077616c6c60008301527f65740000000000000000000000000000000000000000000000000000000000006020830152604082019050919050565b60a082016000820151611809600085018261185b565b50602082015161181c602085018261185b565b50604082015161182f60408501826113c5565b506060820151611842606085018261185b565b50608082015161185560808501826114bd565b50505050565b61186481611baa565b82525050565b61187381611baa565b82525050565b600060208201905061188e60008301846113f2565b92915050565b60006020820190506118a960008301846113b6565b92915050565b60006020820190506118c460008301846113d4565b92915050565b600060208201905081810360008301526118e48184611401565b905092915050565b60006020820190508181036000830152611906818461145f565b905092915050565b600060208201905061192360008301846114cc565b92915050565b60006020820190508181036000830152611942816114db565b9050919050565b600060208201905081810360008301526119628161151b565b9050919050565b6000602082019050818103600083015261198281611581565b9050919050565b600060208201905081810360008301526119a2816115c1565b9050919050565b600060208201905081810360008301526119c281611627565b9050919050565b600060208201905081810360008301526119e28161168d565b9050919050565b60006020820190508181036000830152611a02816116cd565b9050919050565b60006020820190508181036000830152611a228161170d565b9050919050565b60006020820190508181036000830152611a428161174d565b9050919050565b60006020820190508181036000830152611a628161178d565b9050919050565b6000602082019050611a7e600083018461186a565b92915050565b600060a082019050611a99600083018861186a565b611aa6602083018761186a565b611ab360408301866113d4565b611ac0606083018561186a565b611acd60808301846114cc565b9695505050505050565b6000819050602082019050919050565b6000819050602082019050919050565b600081519050919050565b600081519050919050565b6000602082019050919050565b6000602082019050919050565b600082825260208201905092915050565b600082825260208201905092915050565b600082825260208201905092915050565b6000611b6582611b8a565b9050919050565b6000611b7782611b8a565b9050919050565b60008115159050919050565b600073ffffffffffffffffffffffffffffffffffffffff82169050919050565b6000819050919050565b6000611bbf82611bc6565b9050919050565b6000611bd182611bd8565b9050919050565b6000611be382611b8a565b9050919050565b611bf381611b5a565b8114611bfe57600080fd5b50565b611c0a81611b6c565b8114611c1557600080fd5b50565b611c2181611baa565b8114611c2c57600080fd5b5056fea2646970667358221220867d1d5b121513d552e6ac76427850d79cac4f7f57aa76518ba5a2424734b96964736f6c63430006000033",
  "source": "//SPDX-License-Identifier: Open Source\n\npragma solidity 0.6.0;\npragma experimental ABIEncoderV2;\n\nimport \"@openzeppelin/contracts/access/Ownable.sol\";\n\n/// @title CGFMWallet: Crypto Gifts For Minors Wallet\n/// @author Hico\n/// @notice This contract has not been audited\n/// @dev No side effects\ncontract Wallet is Ownable {\n   \n    address[] public approvers;\n    uint public quorum;\n    uint constant public MAX_APPROVER_COUNT = 10;\n\n    address payable public beneficiary;\n    uint public creationTime = block.timestamp; \n    bool public stopped = false; \n\n    struct Transfer {\n        uint id;\n        uint amount;\n        address payable to;\n        uint approvals;\n        bool sent;\n    }\n    Transfer[] public transfers; \n    mapping(address => mapping(uint => bool)) private approvals; \n\n    event EthReceived(address user, uint indexed amount);\n    event WithdrawalRequested(uint indexed amount, address to);\n    event WithdrawalApproved(uint indexed id);\n\n    /// @notice Create Ownable MultiSig Timelock wallet with chosen approvers and amount of approvals needed for quorum\n    /// @dev \n    /// @param _approvers addresses which are approvers of the Multi-Sig\n    /// @param _quorum amount of approvers needed to send transfer\n    /// @param _beneficiary only address which can request a 'send transfer' and 'close wallet' function.\n    constructor(address[] memory _approvers, uint _quorum, address payable _beneficiary) public validRequirement(_approvers.length, _quorum) {\n        approvers = _approvers;\n        quorum = _quorum;\n        beneficiary = _beneficiary;\n    }\n\n    /// @notice Can send Eth to this wallet without any data\n    /// @dev Receive function\n    receive() external payable {\n        emit EthReceived(msg.sender, msg.value);\n    }\n\n    /// @notice The function that is executed if not other fucntion matches the call\n    /// @dev Fallback function\n    fallback() external payable {}\n    \n    /// @notice Get the address list of approvers\n    /// @dev\n    /// @return Addresses of approvers\n    function getApprovers() external view returns(address[] memory) {\n        return approvers;\n    }\n    \n    /// @notice Get the list and details of transfers \n    /// @dev\n    /// @return Transfers list\n    function getTransfers() external view returns(Transfer[] memory) {\n        return transfers;\n    }\n    \n    /// @notice When the contract turns 16, only beneficiary may request to withdraw Eth\n    /// @dev \n    /// @param amount is the amount of Eth the beneficiary wants to withdraw\n    /// @param to is the address that the beneficiary wants to send Eth to\n    function createTransfer(uint amount, address payable to) external onlyBeneficiary() stopInEmergency() timeLock16() {\n        require(address(this).balance > 0, 'There is zero Ether in this wallet');\n        emit WithdrawalRequested(amount, to);\n        transfers.push(Transfer(\n            transfers.length,\n            amount,\n            to,\n            0,\n            false\n        ));\n    }\n    \n    /// @notice Approvers can approve a transfer request\n    /// @dev\n    /// @param id is the indexed transaction id number\n    function approveTransfer(uint id) public onlyApprover() stopInEmergency() timeLock16() { \n        require(transfers[id].sent == false, 'transfer has already been sent');\n        require(approvals[msg.sender][id] == false, 'cannot approve transfer twice');\n        emit WithdrawalApproved(id);\n        \n        approvals[msg.sender][id] = true;\n        transfers[id].approvals++;\n        \n        if(transfers[id].approvals >= quorum) {\n            transfers[id].sent = true;\n            address payable to = transfers[id].to;\n            uint amount = transfers[id].amount;\n            to.transfer(amount); \n        }\n    }\n    \n    /// @notice View balance of this contract\n    /// @dev\n    /// @return Balance of this contract \n    function getBalance() view public returns(uint) {\n        return address(this).balance;\n    }\n\n    /// @notice Toggle contract active by limiting certain functions\n    /// @dev Circuit breaker \n    function toggleContractActive() onlyOwner public {\n        stopped = !stopped;\n    }\n\n    /// @notice Beneficiary can choose to withdraw all Eth and close this contract\n    /// @dev Selfdestruct function\n    /// @return Balance of this address \n    function closeWallet() public onlyBeneficiary() timeLock18() returns(uint) {\n        selfdestruct(beneficiary);\n        return(address(this).balance);\n    }\n\n    modifier validRequirement(uint approverCount, uint _quorom) {\n        require(approverCount <= MAX_APPROVER_COUNT\n            && _quorom <= approverCount\n            && _quorom != 0\n            && approverCount != 0);\n        _;\n    }\n    \n    modifier onlyApprover() {\n        bool allowed = false;\n        for(uint i = 0; i < approvers.length; i++) {\n            if(approvers[i] == msg.sender) {\n                allowed = true;\n            }\n        }\n        require(allowed == true, 'only approver allowed');\n        _;\n    }\n\n    modifier onlyBeneficiary() {\n        require(msg.sender == beneficiary, \"You are not the Beneficiary of this contract!\");\n        _; \n    }\n\n    modifier timeLock16() {\n        require(block.timestamp > (creationTime + 835 weeks), 'Beneficiary is not 16 years old.');\n        _;\n    }\n      \n    modifier timeLock18() {\n        require(block.timestamp > (creationTime + 939 weeks), 'Beneficiary is not 18 years old.');\n        _;\n    }\n\n    modifier stopInEmergency() { \n        require(!stopped, 'This contract is currently stopped'); \n        _; \n    }\n}",
  "sourcePath": "/home/h1c0/Documents/ConsenSys 2020/FINAL PROJECT Github/Crypto_Gifts_To_Minors_Wallet_Dapp/contracts/Wallet.sol",
  "compiler": {
    "name": "solc",
    "version": "0.6.0+commit.26b70077.Emscripten.clang"
  },
  "schemaVersion": "3.3.2",
  "updatedAt": "2020-12-15T00:48:28.504Z",
  "networkType": "ethereum",
  "devdoc": {
    "author": "Hico",
    "details": "No side effects",
    "methods": {
      "approveTransfer(uint256)": {
        "details": "@param id is the indexed transaction id number"
      },
      "closeWallet()": {
        "details": "Selfdestruct function",
        "returns": {
          "_0": "Balance of this address "
        }
      },
      "constructor": {
        "params": {
          "_approvers": "addresses which are approvers of the Multi-Sig",
          "_beneficiary": "only address which can request a 'send transfer' and 'close wallet' function.",
          "_quorum": "amount of approvers needed to send transfer"
        }
      },
      "createTransfer(uint256,address)": {
        "params": {
          "amount": "is the amount of Eth the beneficiary wants to withdraw",
          "to": "is the address that the beneficiary wants to send Eth to"
        }
      },
      "getApprovers()": {
        "details": "@return Addresses of approvers"
      },
      "getBalance()": {
        "details": "@return Balance of this contract "
      },
      "getTransfers()": {
        "details": "@return Transfers list"
      },
      "owner()": {
        "details": "Returns the address of the current owner."
      },
      "renounceOwnership()": {
        "details": "Leaves the contract without owner. It will not be possible to call `onlyOwner` functions anymore. Can only be called by the current owner.     * NOTE: Renouncing ownership will leave the contract without an owner, thereby removing any functionality that is only available to the owner."
      },
      "toggleContractActive()": {
        "details": "Circuit breaker "
      },
      "transferOwnership(address)": {
        "details": "Transfers ownership of the contract to a new account (`newOwner`). Can only be called by the current owner."
      }
    },
    "title": "CGFMWallet: Crypto Gifts For Minors Wallet"
  },
  "userdoc": {
    "methods": {
      "approveTransfer(uint256)": {
        "notice": "Approvers can approve a transfer request"
      },
      "closeWallet()": {
        "notice": "Beneficiary can choose to withdraw all Eth and close this contract"
      },
      "constructor": "Create Ownable MultiSig Timelock wallet with chosen approvers and amount of approvals needed for quorum",
      "createTransfer(uint256,address)": {
        "notice": "When the contract turns 16, only beneficiary may request to withdraw Eth"
      },
      "getApprovers()": {
        "notice": "Get the address list of approvers"
      },
      "getBalance()": {
        "notice": "View balance of this contract"
      },
      "getTransfers()": {
        "notice": "Get the list and details of transfers "
      },
      "toggleContractActive()": {
        "notice": "Toggle contract active by limiting certain functions"
      }
    },
    "notice": "This contract has not been audited"
  }
}